:10000000D01A0020BD1D0000151E0000491C000074
:10001000491C0000491C0000491C0000491C00004C
:10002000491C0000491C0000491C00008518000004
:10003000491C0000491C000041180000491C000038
:100040007D1D0000075B00007D1D00007D1D000080
:100050007D1D00007D1D00007D1D00007D1D000038
:100060007D1D00007D1D00007D1D00007D1D000028
:100070007D1D00007D1D00007D1D00007D1D000018
:100080007D1D00007D1D00007D1D00007D1D000008
:100090007D1D00007D1D00007D1D00007D1D0000F8
:1000A0007D1D00007D1D00007D1D00007D1D0000E8
:1000B0007D1D00007D1D00007D1D00007D1D0000D8
:1000C0007D1D00007D1D00007D1D00007D1D0000C8
:0C00D0007D1D00007D1D00007D1D000056
:0400DC00FFFFFFFF24
:1000E0007BB972B90029BEBF00204FF0004106E085
:1000F00008BF00281CBF6FF000414FF0FF3000F038
:10010000C5B9ADF1080C6DE904CE002909DB002B5F
:100110001ADB00F04DF8DDF804E0DDE9022304B05D
:100120007047404261EB4101002B1BDB00F040F8BF
:10013000DDF804E0DDE9022304B0404261EB410157
:10014000524263EB43037047524263EB430300F0B8
:100150002FF8DDF804E0DDE9022304B0404261EB52
:1001600041017047524263EB430300F021F8DDF890
:1001700004E0DDE9022304B0524263EB430370471D
:1001800053B94AB9002908BF00281CBF4FF0FF31FE
:100190004FF0FF3000F07AB9ADF1080C6DE904CEF4
:1001A00000F006F8DDF804E0DDE9022304B0704752
:1001B0002DE9F0478C460D460446089E002B51D190
:1001C0008A4217466DD9B2FA82FEBEF1000F0BD0FB
:1001D000CEF1200C01FA0EF520FA0CFC02FA0EF713
:1001E0004CEA050C00FA0EF44FEA174A250CBCFB4A
:1001F000FAF81FFA87F90AFB18CC45EA0C4508FB08
:1002000009F3AB420AD9ED1908F1FF3280F02381DE
:10021000AB4240F22081A8F102083D44ED1AA4B29D
:10022000B5FBFAF00AFB105544EA054400FB09F956
:10023000A14509D9E41900F1FF3380F00A81A145F5
:1002400040F2078102383C44A4EB090440EA08402C
:100250000021002E61D024FA0EF400233460736074
:10026000BDE8F0878B4207D9002E54D0002186E8E4
:1002700021000846BDE8F087B3FA83F1002940F079
:100280008E80AB4202D3824200F2FA80841A65EB80
:1002900003050120AC46002E3FD086E81010BDE8D3
:1002A000F08712B90127B7FBF2F7B7FA87FEBEF164
:1002B000000F34D1EB1B3A0C1FFA87FC0121B3FB72
:1002C000F2F8250C02FB183345EA03450CFB08F352
:1002D000AB4207D9ED1908F1FF3002D2AB4200F270
:1002E000D1808046ED1AA3B2B5FBF2F002FB1055A7
:1002F00043EA05440CFB00FCA44507D9E41900F1CE
:10030000FF3302D2A44500F2B8801846A4EB0C04D7
:1003100040EA08409DE731463046BDE8F087CEF11F
:10032000200405FA0EF307FA0EF720FA04F83A0C47
:1003300025FA04F448EA0308B4FBF2F14FEA184541
:1003400002FB11441FFA87FC45EA044501FB0CF34C
:10035000AB4200FA0EF409D9ED1901F1FF3080F03B
:100360008A80AB4240F2878002393D44EB1A1FFA83
:1003700088F5B3FBF2F002FB103345EA034500FBBE
:100380000CF3AB4207D9ED1900F1FF386FD2AB4245
:100390006DD902383D44EB1A40EA01418FE7C1F1C3
:1003A000200722FA07F88B4005FA01F448EA030314
:1003B00020FA07FE4FEA134CFD404EEA040EB5FB4F
:1003C000FCF94FEA1E440CFB19551FFA83F844EA66
:1003D000054509FB08F4AC4202FA01F200FA01FA01
:1003E00008D9ED1809F1FF3043D2AC4241D9A9F147
:1003F00002091D442D1B1FFA8EFEB5FBFCF00CFB01
:1004000010554EEA054400FB08F8A04507D9E4184A
:1004100000F1FF3529D2A04527D902381C4440EA13
:100420000940A4EB0804A0FB02894C45C6464D4692
:1004300015D312D056B1BAEB0E0364EB050404FADF
:1004400007F7CB401F43CC40376074600021BDE804
:10045000F0871846F8E69046E0E6C245EAD2B8EBE7
:10046000020E69EB03050138E4E72846D7E740466A
:1004700091E78146BEE7014678E702383C4445E70C
:10048000084608E7A8F102083D442BE7704700BF83
:1004900000207047012070472D2070472DE9F04F54
:1004A0009B46436885B016465B68019102AA0546E3
:1004B000984748BB029CDDF80CA0164AA6FB040135
:1004C00006FB0A110023FFF75BFE4FF000094FF017
:1004D000FF38894508BF8045064618D3ABFB0401A9
:1004E0000BFB0A110B4A0023FFF74AFE894508BFA0
:1004F00080450CD36B6801991C6832460346284638
:10050000A04705B0BDE8F08F6FF00400F9E76FF089
:100510002200F6E740420F002DE9F041C47A05467B
:100520000E4617469846D4B9A2F11103032B07D8FB
:10053000084607F01FFA38B931460B4800F028FD8D
:100540006FF01500BDE8F08101232F71EB72AB72E3
:100550002860A5F80880EC802046BDE8F0816FF0A7
:100560000F00BDE8F08100BFCA8C0000C37A2BB138
:1005700003898B4205D3C180002070476FF01200C1
:1005800070476FF01500704710B5C37A83B1837A56
:100590000289017953B1C3880068FFF77FFF0446E1
:1005A00010B1054800F0F4FC204610BD1346F3E7F7
:1005B0006FF01204F8E700BFDB8C000038B5047957
:1005C00005463CB9054807F0D5F901232B71286091
:1005D000204638BD6FF00F0038BD00BFEE8C000024
:1005E00070B50379012B04460D460BD100684368B2
:1005F0000A461E68002140F20513B04700206071D2
:10060000A56070BD6FF0120070BD38B50379012B85
:1006100002460AD10024447100689268436821466A
:100620005D682346A847204638BD6FF0120038BDEC
:1006300010B50379012B024608D143710068926816
:1006400041684C680021A047002010BD6FF01200E7
:1006500010BD000010B544F6206311221149124864
:10066000FFF75AFF044620B1104800F091FC2046E5
:1006700010BD44F6206312220A490D48FFF74CFFD3
:1006800004460028F0D10B48FFF798FF0A48FFF70F
:1006900095FF13210748FFF7A3FF14210648FFF732
:1006A0009FFFE4E7F58C000018000020FB8C0000A1
:1006B00024000020000000200C0000202DE9F74F4E
:1006C000FFF7E6FE0446FFF7E5FE0546FFF7E4FE0A
:1006D0002A4603462146334800F05AFC08F0C6F883
:1006E0008246FFF7B7FF0446002857D101462E483F
:1006F0002D4FDFF8B880DFF8C890FFF737FF44F6DA
:1007000020612A48FFF732FF294800F041FC4FF0F2
:10071000010B2646254629463846FFF727FF44F6B3
:100720002063591B89B240460193FFF71FFF3846EB
:10073000FFF72AFF4046FFF727FF019B9C420DDD94
:1007400006B308F093F8A0EB0A011A4800F020FC69
:10075000194803B0BDE8F04F00F01ABC0135ADB246
:10076000642303FB0BF39C420AD11BF0010F4846A4
:100770000ED0FFF74AFF1148FFF747FF0BF1010BBF
:100780000134C8E734464FF0010B5E462546E7E7E3
:10079000FFF74EFF0948FFF74BFFEFE703B0BDE857
:1007A000F08F00BF1D8D00001800002024000020E5
:1007B000398D0000488D00005E8D00000C00002087
:1007C0000000002008B50446084611461A46A04716
:1007D00007F084FD01F0AEFA10B504464FF0FF318A
:1007E000204607F009FB03460028F7D0083342688B
:1007F000BFF35B8F53E8001F21F0010E43E800ECCC
:10080000BCF1000FF6D1BFF35B8FCB0700D590474B
:1008100007F03AFDE2E710B590F90B40C0688C4252
:100820004FF00C04B6BF614304FB01014158202482
:1008300092FBF4F401EB8401196002F01F0010BD7B
:1008400007B501ABFFF7E7FF019A012303FA00F0B8
:1008500013680343136003B05DF804FB07B501ABF5
:10086000FFF7D9FF019A012303FA00F0136823EA86
:100870000003136003B05DF804FB2DE9F047436803
:10088000058904460068A77A5D43FF222844E27286
:1008900000214FF00C0E4FF0200CB94205DB002573
:1008A00023899D4223DBBDE8F087D4F80C90B5FB8B
:1008B000F3F20EFB01F81F2A09EB08064FEA930337
:1008C00006F1040AC8BF1F3203F10303C6F804A0EF
:1008D000C6F808A0CABF92FBFCF2E17249F8080012
:1008E00023F00303C8BF00EB82000131D5E7626843
:1008F000E36820686A431E1D865081189A684A6022
:100900009A682046116099602A460021FFF798FFF7
:100910000135C5E72DE9F04F8BB0867A00AF04466C
:10092000BB60B3000A3323F00703ADEB030D43684C
:10093000FA6003336A4623F0030342F80439E946B8
:100940004FF0FF3500234FF00C0E581EB342786273
:1009500009DA2BB110688008033020F003005060E2
:10096000506888420BD27B6A013314D13A6D002360
:1009700013606FF00B002C37BD46BDE8F08FE068C8
:100980000EFB030000F1040C40680432604518BF00
:100990001D460133D9E76E1CE8D0237C13F0010318
:1009A00005D04FF02002EFF3118382F311883B62F0
:1009B0000C236B431A1DE36813441E68B3427DD0B9
:1009C00096E80A001960316859F825204B602368C1
:1009D0002946F31A204693FBF2F2FFF73FFFA9EBFB
:1009E000890309EB850A7B617B6A9D4216DB237CC8
:1009F000D90702D53B6A83F31188FB681A467B6AE4
:100A0000136023687A6AF31A59F8222093FBF2F3F1
:100A1000BA6813603B6D00201E60ACE723685AF88B
:100A2000042BF31A93FBF2F37A699B003B610AEB08
:100A30004A0313444FF0010BBB6105EB0B037B60D2
:100A4000DAF8008079680BFB08F3FB61F3183B6070
:100A50003B6920460BEB0302FFF7F2FE3B6822687E
:100A6000218908F1FF389844A8EB020862684A43DC
:100A700090450AD2E268B969F8690A44111D3150FB
:100A80009168596091680B6093600BF1010BBBF1A9
:100A9000040FD5D1237CD80705F1010502D53B6AA7
:100AA00083F31188237C13F0010305D04FF020025B
:100AB000EFF3118382F311883B6295E7013D6A1CD5
:100AC000A3F10C037FF479AF002690E72DE9F04FF6
:100AD00087B0837A9B000A3323F0070300AFADEBA6
:100AE000030D4368033323F003030446E8460093F1
:100AF0006D460120814280F08380237C13F0010346
:100B00000E46154605D04FF02002EFF3118382F315
:100B10001188BB600C2303FB01F958F82630FB60F9
:100B200003FB05FB23687B602A463146204603EB26
:100B30000B0AFFF785FEE2687B684A44111D43F803
:100B40000B109368CAF804309368C3F800A0C2F889
:100B500008A0237CDA0702D5BB6883F3118894F8D8
:100B600010A01AF0010A05D04FF02003EFF3118A0C
:100B700083F31188C7F808A0002E4AD007F11403A8
:100B80002A4631462046FFF746FE7A69042390FB49
:100B9000F3F083001068D84000F00F000F2838D120
:100BA00025F003037B60FB684FF0000A013B7A6885
:100BB000F968B4F808E0524401FB02FB616803EBFA
:100BC0000B0001FB0EF188420FD2314620463B60FC
:100BD000FFF744FE22683B6852F80B0002EB0B0162
:100BE0004968086052F80B2051600AF1010ABAF115
:100BF000040FDCD195FBFAF5013EA9F10C098CE755
:100C00002B689B08033323F0030345F8043F0130AE
:100C100070E7237CDB0701D58AF311881C37BD46BA
:100C2000BDE8F08F002070470B6801330B60014B6B
:100C30001B681847102800202DE9F04F85B09B460F
:100C40000E9CDFF890A0012CB8BF0124012B0CBF33
:100C500030232023154680468946019402930126BD
:100C60000A2700220AF101040AB9AA451FD2B5FBDE
:100C7000F4F049463030C04701360122013F012FD0
:100C8000B5FBF4F14FF00A0304FB1155BAFBF3FA7C
:100C9000E8D1494605F13000C047BBF1030F03D14D
:100CA000019B9C1B002C0FDC05B0BDE8F08F019B65
:100CB000BB42E3DBBBF1020FE0D849460298039246
:100CC0000136C047039AD9E749462020C047013C76
:100CD000E8E700BFFFC99A3B0A688B6830B512B1DC
:100CE0004C68A34202DB01338B6030BD651EAB4212
:100CF0000BBF8C605C1C00218C600CBFD154D054A5
:100D000030BD0000014B1860704700BF1028002064
:100D10002DE9F04F89B04FF0000A06460F460492C5
:100D20001C464FF0FF39D0465546049B187810B941
:100D300009B0BDE8F08F45B9252800F00C8139468F
:100D4000B047049B01330493EFE7642861D019D8BE
:100D500039280AD8312850D22D283CD030283DD00F
:100D6000252808D13946B0476FE0582800F089801F
:100D7000632800F0EA8039462520B047049B3946B5
:100D80001878F0E7702872D006D8692841D06C280E
:100D90003CD06828D5D0EEE7752858D017D87328EE
:100DA000E9D1236804F1040B1C46254615F8010B14
:100DB000002840F0BF80B8F1030F40F0D580E41A5E
:100DC000A9EB0404002C00F3BB805C463DE07828CE
:100DD00057D07A28DEE74FF00308B2E7B9F1000FE9
:100DE0000EDAB8F1000F00F0BC80A0F13009B8F1C4
:100DF000000F08BF4FF00208A3E7B9F1000FF4DBC2
:100E00000A2303FB0909A9F13009F0E70AF1010AF5
:100E100097E7BAF1010FC5BF073424F0070325682F
:100E20001D68D4BF043403F10804002D05DA3946E7
:100E30002D20B0476D4209F1FF39CDF800904346AF
:100E40002A4639463046FFF7F7FE002579E7BAF122
:100E5000010FC5BF073424F0070322681A68CDF8D4
:100E60000090CCBF03F1080404344346E9E7394657
:100E70003020B04739467820B0474FF008094FF08E
:100E80000108BAF1010FC7BF073424F00703236834
:100E90000593C2BF03F108041B6805934FF00802D5
:100EA0004FF00003D8BF04340393079393460BF12C
:100EB000FF3B059B4FEA8B0023FA00F010F00F0078
:100EC00009D1079B13B9BBF1000F22D14FF0300EAF
:100ED00007E0069AEBE709288CBF4FF0570E4FF05A
:100EE000300E394670440692B047039B0795013394
:100EF0000393BBF1000FECD1B8F1030FA5D1039B15
:100F0000C3EB4905002DA0DD39462020B047013D47
:100F1000F8E7531E91450693EBDBB8F1010F03D1BF
:100F200039463020B047E4E7B8F1020FE1D1394645
:100F30002020F7E7394603932C46B047039B34E75C
:100F400039462020B047013C3CE72068251D394642
:100F5000B0472C4679E7AA46A8464FF0FF3901254D
:100F6000EFE64FF00108ECE65C460546E9E60000D6
:100F700013B502AC002344F8043D02460B46034877
:100F80002146FFF7C5FE02B010BD00BF290C0000CE
:100F90000FB407B504A951F8040B0191FFF7E8FF5E
:100FA00003B05DF804EB04B0704700000CB430B53A
:100FB00085B008AB044653F8042B0190029100253C
:100FC00001A9074800930395FFF7A2FE0398029B2F
:100FD0009842B8BF255405B0BDE8304002B0704714
:100FE000D90C00007047000010B54FF02003EFF35C
:100FF000118483F3118800F04FF8084A0123C2F8E6
:1010000040354FF08042C2F87835054B4FF0FF3243
:101010009A62DA6284F31188002010BD00E001407A
:1010200000ED00E0094B1B78062B0CD1084B1B6828
:101030001A0708D1074B186800F0F000A0F1300340
:101040005842584170470020704700BFE00F00F041
:10105000E40F00F0E80F00F00C4B1B78062B10D1CA
:101060000B4B1B681A070CD10A4B186800F0F003F1
:10107000302B08D000F0E000A0F140035842584166
:101080007047002070470120704700BFE00F00F05C
:10109000E40F00F0E80F00F008B5FFF7DDFF28B11E
:1010A000794B7A4A1B68C3F304231360FFF7BAFF36
:1010B00010B1774B774A1A60FFF7CEFF28B1764B15
:1010C000764A1B68C3F342331360FFF7ABFF20B1CE
:1010D000734AD36823F08073D360FFF7BDFF40B13C
:1010E0004FF080430022C3F80C21C3F81021C3F84D
:1010F0003825FFF797FF10B16A4B03221A60FFF7FC
:1011000091FF40B1684B05221A6001229A670022C4
:101110009A603F225A60654B1B78062B09D1644BBD
:101120001B68190705D1634B1B6803F0F003502BB4
:101130005CD0FFF791FF28B15F4B604A1B6803F05A
:101140004F031360FFF788FF48B14FF08043D3F897
:101150000024D20744BF6FF00102C3F80024584BAB
:101160001B68062B04D1574B1B68062B00F08680AA
:101170004FF01023D3F80022002A03DBD3F8043207
:10118000002B2FDA504B0122C3F80425D3F800249A
:10119000002AFBD04FF010221521C2F80012D3F81C
:1011A0000024002AFBD04FF010231522C3F804229C
:1011B000454B1A46D3F800140029FBD00021C3F890
:1011C0000415D2F80034002BFBD0BFF34F8F3F49FA
:1011D0003F4BCA6802F4E0621343CB60BFF34F8F0A
:1011E00000BFFDE73B4B3C4A1A6008BD4FF0805200
:1011F0003A4BD2F80414C3F82015D2F80814C3F8F7
:101200002415D2F80C14C3F82815D2F81014C3F81A
:101210002C15D2F81414C3F83015D2F81814C3F8EA
:101220003415D2F81C14C3F84015D2F82014C3F8B2
:101230004415D2F82414C3F84815D2F82814C3F87A
:101240004C15D2F82C14C3F85015D2F83014C3F84A
:101250005415D2F83414C3F86015D2F83814C3F812
:101260006415D2F83C14C3F86815D2F84014C3F8DA
:101270006C15D2F84424C3F870255AE7184A13684D
:1012800043F48063136073E724030010403501408A
:1012900074C007400DF0ADBA440200103C05004098
:1012A000F0ED00E0A005004010560040E00F00F017
:1012B000E40F00F0E80F00F058020010E40E0040C8
:1012C000300100103401001000E0014000ED00E0AA
:1012D0000400FA05142800200090D00300C000404C
:1012E0003C17004013B5114CBFF35B8F2068BFF370
:1012F0005B8F60B90E4806F03DFBBFF35B8F54E88F
:10130000003F44E80002002AF9D1BFF35B8F436835
:1013100004221B680DEB02019847002802DA00F056
:1013200049FA0190019802B010BD00BF30000020C2
:101330009F8D00000A2838B50446074D04D128685F
:1013400043680D215B68984728684368E1B25B6891
:101350009847204638BD00BF340000200148FFF701
:10136000D1BC00BF3513000008B5044806F002FBED
:10137000034B1860FFF7F2FF002008BDA98D0000A5
:101380003400002010B54FF02003EFF3118283F3F7
:101390001188114C237823B982F311886FF044002F
:1013A00010BD013BDBB2237023B182F311886FF0D3
:1013B0000F0010BD094B1878012128B1217082F36C
:1013C00011886FF00A0010BD197082F31188044A69
:1013D0001160187010BD00BF3A00002039000020D5
:1013E0000400004008B500221046012100F0CEFBA9
:1013F000002000F099FB002008BD0000F8B54FF078
:101400002002EFF3118382F31188264A1078441CDE
:10141000147070B183F311884FF08043D3F80C340B
:1014200003F00113B3F1011F0CBF00206FF0430064
:10143000F8BD1D4D2F782FB1107083F311886FF018
:101440000A00F8BD01262E7083F311884FF0804406
:1014500019B3384600F078FBC4F80071D4F80433AF
:10146000C4F804632660D4F8002192B10022C4F8C5
:1014700000210E4A13F0010F4FF0010308BFC4F81A
:1014800008330020C2F8803100F04EFB00232B709F
:10149000C2E720BF40BF20BFE5E7C4F800112660C7
:1014A000F4E700BF3A0000203900002000E100E02E
:1014B000F8B54FF080430546D3F808E1D3F804238C
:1014C000D3F80071D3F80403D3F80461D3F80C11F6
:1014D000D3F81041003402F0010218BF0124BEF11C
:1014E000000F03D04FF0000EC3F808E1002F41D0E9
:1014F0004FF080430027C3F8007152B14FF0804392
:10150000234F01224FF0020EC3F80823C7F800E072
:101510001A61EEB959B11E4B4FF080460021196097
:101520002846C6F80C11FFF72DFF012373616CB339
:101530004FF0804300210124C3F810112846C3F85E
:101540000443FFF75BFF08BB124BC3F80041F8BD33
:101550004FF080430022C3F804218207DAD502222B
:10156000C3F80823D3F81C349B07D3D10029DFD05C
:101570000124D0E7002ACCD04FF08043D3F80C34BC
:1015800003F00113B3F1011FC3D1B7E7F8BD00BFEA
:10159000340C004000E100E070B54FF02002EFF3A2
:1015A000118382F31188224D2A788AB183F311883E
:1015B0004FF08042D2F81C34D2F8182403F0030311
:1015C00043F48033934314BF6FF04300002070BD99
:1015D00001242C7083F311884FF08043154EC3F81B
:1015E00004210225C3F81815C3F8045311F00301B0
:1015F00034604FF01806C3F80863C3F80C21C3F831
:101600001021D5D11022C3F83825C3F80463D3F8CC
:101610001824D20302D4C3F80453C9E7C3F804431F
:10162000FFF7ECFE0028C3D1034BC3F80041BFE72E
:10163000380000200800004000E100E070474FF053
:101640002003EFF3118083F3118870470D4A0023C4
:1016500010B5C2F84031FFF7F2FF0B49D2F804355C
:101660000C6840F247121B1B23F07F43B3FBF2F3DD
:1016700002FB03420A6080F311881846BDE810405F
:1016800007F084B8001001403C00002037B51F4827
:1016900006F070F9002835D043681D4D1B68012104
:1016A0009847002440F24713C5F80845C5F840356F
:1016B0004FF48033C5F84433C5F8043303F1804355
:1016C00003F58A534FF400321C601B680193019BA1
:1016D000104B0121C3F880211120224600F056FA58
:1016E000112000F021FA0C4A012313602B60D5F879
:1016F000043503F2471323F07F43C5F840352046F5
:1017000003B030BD4FF0FF30FAE700BFC88D0000D6
:101710000010014000E100E00810014070B54CF6F7
:101720006905B0F1FF3F14BF02462A46134CFFF78C
:1017300086FF134BD4F804151E68531EAB42A1EB71
:101740000602A8BF2B4622F07F4240F2471502F561
:10175000A37223EAE37305FB0323B3FBF5F305FB55
:101760000363591A21F07F411F2998BF5B1923F0A9
:101770007F43C4F8403580F3118870BD00100140EC
:101780003C00002008B5FFF75AFF084B084AD3F881
:10179000043512689B1A23F07F4340F24712B3FBD3
:1017A000F2F380F31188184608BD00BF0010014015
:1017B0003C00002008B5FFF742FF064B064AD3F86D
:1017C0000435126880F31188981A20F07F40104485
:1017D00008BD00BF001001403C00002004488168A3
:1017E000406A884203D003494FF080520A60704734
:1017F000500E002004ED00E0044800232021C21810
:101800000133272B82F80013F9D1704700E100E083
:10181000084A0949936809689966084958664B68F7
:1018200043F080534B60002383F311889368986ED4
:10183000704700BF500E00201493000000ED00E040
:10184000202080F311880D498A6828201044EFF386
:10185000098C80E8F01F0A4F4FF000664A6A8A60E0
:101860003E60506E0023536680F3118802F1280019
:1018700090E8F01F8CF3098870470000500E00209C
:1018800004ED00E01EF0040F0CBFEFF30880EFF34F
:101890000980816931F8021C11F0FF010229FFD093
:1018A00000B500F017FA00BD38B5194C05461948C7
:1018B000FFF76EFBA36AD90602D51748FFF768FB4E
:1018C000A36A1A0702D51548FFF762FBA36A9B07B4
:1018D0000ED51348FFF75CFB616BA36A180607D5AA
:1018E0001048FFF755FB1DB1A36A23F08003A362E4
:1018F000074CA26AD20702D50B48FFF749FBA36A3F
:101900009B0602D50948FFF743FB002038BD00BF06
:1019100000ED00E0378F00004E8F0000608F000068
:10192000748F00008D8F0000A48F0000C48F000012
:1019300038B51B4C05461B48FFF72AFBA36AD804A1
:1019400004D51948FFF724FB002038BDA36A190508
:1019500001D51648F6E7A36A9A0514D51448FFF78F
:1019600017FBA16BA36A1B0407D51248FFF710FBF6
:101970001DB1A36A23F40043A362094B9B6A580577
:10198000E2D50D48DEE7A36A5905FAD4A36ADA0561
:1019900001D50A48D6E7A36A9B04D5D50848D1E704
:1019A00000ED00E0E88D00004E8F0000608F000029
:1019B000FF8D0000198E00002F8E00004B8E00005E
:1019C000C48F000010B5194C1948FFF7E1FAA36A5B
:1019D0009A0102D51748FFF7DBFAA36ADB0102D5AB
:1019E0001548FFF7D5FAA36A180302D51348FFF785
:1019F000CFFA0E4CA36A590302D51148FFF7C8FA73
:101A0000A36A9A0302D50F48FFF7C2FAA36ADB0361
:101A100002D50D48FFF7BCFA044A936A6FEA034304
:101A20006FEA13439362002010BD00BF00ED00E099
:101A3000F48F00000D900000219000003C90000009
:101A40005B900000819000009C90000038B5274C0E
:101A50006368C3F30803DA1E0546092A3AD8DFE8AB
:101A600002F0053335303939393939372048FFF735
:101A70008FFAE36A9A0703D51E48FFF789FA02E056
:101A8000E36A5B0005D400202946BDE8384000F039
:101A9000EFB81948FFF77CFA184B1B782BB10120DF
:101AA000FFF702FF0628EFD138BD154B1B781BB19D
:101AB0000120FFF73DFFF5E7124B1B889BB2002B7F
:101AC000E1D0FFF77FFFEDE70020E9E70020F0E736
:101AD0000D48D2E70D480E49A3F110020F2BD8BFD5
:101AE00001460C48FFF754FACDE700BF00ED00E0D7
:101AF000928E0000AA8E0000CC8E000028ED00E03F
:101B000029ED00E02AED00E0EC8E0000648E00007C
:101B1000798E0000238F0000024A536943F01003BE
:101B20005361704700ED00E043B2002B08DB012257
:101B300000F01F0002FA00F05B09024A42F823009D
:101B4000704700BF00E100E043B2002B0DDB012233
:101B50005B0900F01F0002FA00F02033034A42F84C
:101B60002300BFF34F8FBFF36F8F704700E100E09A
:101B70004209054B00F01F0053F82220012303FA0D
:101B800000F01040704700BF00E100E043B2002BBE
:101B9000A8BF03F1604301F101014FEA4111ADBF5C
:101BA00003F5614300F00F00034BC9B2B6BFC9B2E1
:101BB00083F800131954704714ED00E000F044B8A6
:101BC00008B572B6044B186A18B100221A6205F003
:101BD000F7FE62B608BD00BF500E0020704700003F
:101BE000F8B50C4616461F4604220A9B099905467D
:101BF00006F0E0FCA6F1200121440C4AAC6521F07E
:101C00000701002322F00102EB642B65EE658A6177
:101C1000069A4A60079A8A60089ACA600F604FF075
:101C20008072CA61A9646B66F8BD00BFC507000079
:101C3000014910220A60704710ED00E0404080F337
:101C4000118830BF704700BF404080F31188DFF833
:101C50001CC0DCF800C01CF4006C0CBFEFF3088063
:101C6000EFF3098000B5FFF7F1FE00BD04ED00E0E1
:101C700038B504460D4605281AD8DFE800F00319E8
:101C8000191315170D48FFF783F906F027FBAA690A
:101C900001460B48FFF77CF929462046BDE838404D
:101CA00000F01CB80748EEE70748ECE70748EAE70A
:101CB00001460748FFF76CF9E7E700BFC89000004E
:101CC00066910000E89000000E910000289100004D
:101CD0004391000001460068FFF7CABF052810B510
:101CE0000CD006F091FB60B106F08EFB0C4B0D4959
:101CF000002808BF19460C48FFF74AF9FFF79EFF76
:101D0000FCE706F091FB0028EED1084C0848A168DA
:101D1000FFF73EF9A068BDE8104000F00BB800BF27
:101D2000A6910000A2910000B7910000500E002083
:101D3000D791000038B505464FF02003EFF311842A
:101D400083F3118806F0CAFB0A4B9B689D420BD1B6
:101D5000094B5A68C2F3080212B92046FFF758FD32
:101D60005A6842F080525A602046BDE8384006F07A
:101D700067B900BF500E002000ED00E000B572B65C
:101D80000B4A106A00281EBF0021116205F018FEE0
:101D900062B6EFF30580A0F110004FEAC0000549DC
:101DA000014409C998475DF804EB03480047000067
:101DB000500E0020F08A0000DD170000202080F384
:101DC000118806484FF40061401880F3098802200A
:101DD00080F31488BFF36F8F00F006F8101C00200A
:101DE00030BFFFF7FDBF00BF08B5084B084A23F01E
:101DF0007F039360BFF34F8FBFF36F8F05F0FAFD42
:101E000005F002FEFFF7F8FC05F022FE00000000DE
:101E100000ED00E008B5FFF7E3FFBDE80840FFF77D
:101E2000DDBC0000034B05225A60BFF34F8FBFF3A8
:101E30006F8F704790ED00E0BFF35F8F014B002282
:101E40005A60704790ED00E0124910B50C68082CFC
:101E50001CD8FFF7F1FF104849680022A24201F1A7
:101E60000C0103D1FFF7DEFF002010BD826051F8A6
:101E70000C3C23F01F0343F010031343C36051F8DD
:101E8000043C43F0010303610132E7E74FF0FF3008
:101E900010BD00BF708D000090ED00E001390346D9
:101EA00011F8012F0AB91A70704703F8012BF7E7F0
:101EB0000138013910F8013F11F8012F934202D186
:101EC000002BF7D11A46981A704770B582B1013AC3
:101ED0000C46034603D11A782078101A70BD1E787C
:101EE0002578AE4200F1010001F10101EFD0F2E7E7
:101EF000104670BD81EA000313F0030F70B503466E
:101F00000BD0013B0A4491421BD170BD002AFCD08A
:101F100011F8014B03F8014B013A9C07F6D11E1F43
:101F20000D46541B0C44032C06D822F00304214414
:101F3000234402F00302E4E755F8044B46F8044F4B
:101F4000EFE711F8014B03F8014FDCE770B5C9B2B8
:101F500003469C0711D141EA012444EA04441E4689
:101F6000951B1D44032D0ED822F00304234402F0D8
:101F700003021A44934209D170BD002AFCD003F831
:101F8000011B013AE5E746F8044BE9E703F8011BBA
:101F9000F0E700B5BFF35B8F50E8003F43EA010272
:101FA00040E8002EBEF1000FF6D1BFF35B8F18465C
:101FB0005DF804FB70B5064688790D4604F0C2FD55
:101FC0000E4B834219D1284604F0C2FD284604F086
:101FD000BFFD0B4C04EBC000436873B1284604F00E
:101FE000B7FD04F83060284604F0B2FD04EBC000F1
:101FF000BDE87040406806F080B970BDC82A002076
:1020000040000020F8B50B4E07460025F379ECB2EE
:10201000A34202D86FF0010409E0C4EBC401072217
:1020200031443846FFF751FF01350028EED12046F4
:10203000F8BD00BF18280020074BBFF35B8F420993
:1020400003EB820300F01F001B6FBFF35B8F43FAAB
:1020500000F000F001007047182800202DE9F0473B
:10206000804689461348144D4FF0FF3104F0FEFDC1
:10207000044600F1080600213046002704F0FCFD6C
:102080002775204604F064FD05EBC000A0F802802F
:10209000204604F05DFD05EBC0000321476030469B
:1020A00004F02EFE80F80290A0F800802046BDE8E3
:1020B000F08700BFC82A00204000002070B51546F8
:1020C00086B00C4619B9FFF7C9FF044668B3012270
:1020D0000021684606F008F9204604F039FD144E48
:1020E00006EBC000C0F804D0204604F005FE2146EF
:1020F000104804F0C5FD42F21071684606F024F95C
:10210000204604F025FD16F8300030B1204604F0DA
:10211000C5FD6FF0040006B070BD0DB12C60FAE78C
:10212000204604F0BBFD2846F5E76FF03600F2E7E5
:1021300040000020BC28002070B5154D062205F196
:102140000A010646FFF7C1FE0446D8B1062142F255
:102150000500FFF783FF0446B0B106223146083080
:1021600004F0D4FD2146002242F20500FFF7A6FF4D
:10217000044638B90622314605F10A00FFF7BAFED7
:1021800001236B72204670BD6FF03604FAE700BF82
:1021900018280020012310B50621044600F8013B51
:1021A00002F04EF818B9A37963F03F03A37110BD94
:1021B00030B5044685B00D4699B100230722694623
:1021C00028460093CDF80330FFF77FFE48B1104852
:1021D000C4EBC404072229462044FFF78BFE05B058
:1021E00030BD02A8FFF7D6FF02A8FFF70BFF0028BB
:1021F000F7DA0748C4EBC4040444072202A92046C6
:10220000FFF778FE002DEAD0072221462846E4E7B2
:1022100018280020F8B5067D012E04460AD18768EB
:102220003B780E3B012B0AD8404080F311884FF0D9
:10223000040002DF04F032FD6FF01500F8BD00F17C
:1022400008050221284604F06AFD3B783E2B03D1A5
:102250003146284604F063FD204604F01FFD0020AF
:10226000F8BD0000F8B5037D8668012B044605D053
:10227000404080F311884FF0040002DF8389012B76
:10228000F6D933780E3B012BF2D800F10805022174
:10229000284604F044FD33780E2B05D00F2B17D0C1
:1022A000204604F0FBFCE3E7A368032128461E78E0
:1022B00004F035FDA36821461878FFF77BFE16B1C0
:1022C0000A4806F01AF8204604F0E8FC0020F8BDA1
:1022D000A66804217778284604F021FD214630784D
:1022E000FFF768FE002FEED0EAE700BFA02800202D
:1022F000084AD2F8B4303BB9C16841B1016931B183
:10230000C2F8B400184670476FF0440070476FF091
:102310001500704718280020F7B50C46064628B966
:10232000F4B16FF01505284603B0F0BD0023072275
:1023300069460093CDF80330FFF7C7FD0028EFD0C2
:102340003378012BEDD1B37903F0C003C02BE8D172
:102350003046FFF757FE0028E2DB6FF04405E2E766
:102360000C4FFC79012C11D0631CFB71254644B93C
:102370000120FFF761FE20B9082107F17000FFF787
:1023800008FE31462046FFF713FFCCE76FF00B0540
:10239000C9E700BF182800202DE9FF41224DE97947
:1023A00000293BD195F86230DB070DD40027EF718F
:1023B000002F33D00024EB799C4226DB1B48FFF72B
:1023C000BBFE04B0BDE8F08101AA4FF60940FFF75B
:1023D00075FE0028EAD1019B9E687478003418BF0E
:1023E000012427464FF001080236844203DC01989D
:1023F00004F054FCDBE7062231460DF109008DF8AC
:102400000880FFF777FD0120EFE7C4EBC40102ABC2
:10241000E0B21944FFF7CCFE0134CCE700210846B6
:10242000FFF77AFFCDE700BF182800201928002009
:10243000F0B5BC4DD5F8B430996811F0010187B002
:1024400022D101AA40F60340FFF738FE04460028D7
:1024500040F04081019B9B681B7893B9BFF35B8F71
:102460002B4653F8702FBFF35B8F02F00D02BFF3C2
:102470005B8F53E8001F43E800200028F9D1BFF329
:102480005B8F019804F00AFC01AA002141F20300CD
:10249000FFF714FE0446002840F01C81019BA2486F
:1024A000996808220131FFF725FD019804F0F6FB39
:1024B000214601AA41F20100FFF700FE0446002870
:1024C00040F00881019883685A782A74D9789A78FC
:1024D00042EA01226A821A796A74197ADA7942EA3E
:1024E0000122AA825A799B7942EA0323EB8204F003
:1024F000D5FB0320FFF7A0FD014658BB01AA41F21E
:102500000900FFF7DBFD0446002840F0E380019B53
:1025100002909E68ADF80C000136062202A93046F2
:10252000FFF7D3FC98B1814B186804909B88ADF8F5
:102530001430062204A93046FFF7C7FC38B1062242
:1025400031467B48FFF7D6FC01232C70EB710198D4
:1025500004F0A4FB01AA002141F20200FFF7AEFD46
:102560000446002840F0B680019B724899684022DA
:102570000131FFF7BFFC019804F090FB2B7F590657
:1025800040F1C080214601AA42F20300FFF796FD08
:102590000446002840F09E80019B67489968082205
:1025A0000131FFF7A7FC019804F078FB2B7F9A0616
:1025B00075D595F83C301B0700F18F80082142F259
:1025C0000100FFF74BFD044600286FD008210844A6
:1025D00004F096FB02260022067042708270C270E0
:1025E000027142718271C271214642F20100FFF70D
:1025F00065FD044600286DD1082140F60140FFF733
:102600002DFD0746002851D00821084404F078FB2E
:10261000802343702023047084700471447184719A
:10262000C670C3712246394640F60140FFF746FDA9
:10263000044600284ED1014601AA4FF60140FFF79B
:102640003DFD20BB019804F029FB01AA21464FF66D
:102650000240FFF733FDD0B9019B384899683246F4
:102660000131FFF747FC019804F018FB01AA21464D
:102670004FF60340FFF722FD48B9019B30489968A7
:1026800001221144FFF736FC019804F007FBEB79B7
:10269000002B3AD1FFF780FEB8B304461AE00221BE
:1026A00040F66D40FFF7DAFC064610B96FF03604CD
:1026B00010E00221083004F023FB01234470037072
:1026C0002246314640F66D40FFF7F8FC04460028EC
:1026D0003FF46FAF204607B0F0BD01AA002142F2DF
:1026E0001C00FFF7EBFC04460028F3D10198836837
:1026F00053F8012F5B68C5F88430C5F8802004F0DA
:10270000CDFA5BE76FF01204E4E702210D48FFF712
:1027100040FCEB79002BDDD004210A48FFF739FC9F
:10272000D8E700BF1828002030280020C48C000003
:10273000192800203828002090280020792800201F
:10274000782800208828002010B5FFF771FE034B81
:102750001B6813B1BDE81040184710BD50000020A1
:1027600038B50546054804F081FA044620B1002139
:10277000083004F081FA2575204638BDE82A00208B
:1027800010B501464FF02003EFF3118083F3118859
:102790000B4A0023D2F8A040C2F8A03080F3118881
:1027A00024B90120BDE81040FFF7DABF012204F18F
:1027B00008002275A381194604F05EFA204610BD78
:1027C00018280020F7B51860C31D054623F0030341
:1027D000501E0E4680B214461A800021042206FBC9
:1027E0000050FFF7B3FB023CA4B24FF6FF77BC42A8
:1027F00001D103B0F0BD04FB06602B180422801B3E
:102800000DEB02012844013C0193A4B2FFF772FBD7
:10281000EDE773B50568064695B1EB1D23F003039C
:1028200004221C8829460DEB0200FFF763FB019B85
:10283000013CA4B21BB1DA1D22F003021480336004
:10284000284602B070BD70B50C6806460D461CB136
:10285000E31D23F003031C88042229463046FFF7BA
:1028600049FBF21D22F00302631C13802E6070BD31
:1028700002FB0100704710B5114401384FF6FF7399
:10288000013A92B29A4200D110BD11F8014D00F800
:10289000014FF5E710600860704710B514682060BC
:1028A00014686160106010BD884203D01AB143689B
:1028B00013607047002070470B68834209D022B133
:1028C000586810601A680A6001E0002BFAD11846B7
:1028D00070470023FBE700002DE9F047114FDFF8B8
:1028E00048900426013EF6B2FF2E19D033B24FEACB
:1028F000830803EB43031D0104244FF00C0A0AE094
:102900001AFB04510A1D04EB08003A44394409EB50
:10291000C000FFF7BFFF013CE4B2FF2CF0D1E1E7BC
:10292000BDE8F087D800002054000020F0B4124B1E
:1029300005460F460C26302472B1614306FB001495
:102940002344597A187A814204BF0131197228460A
:102950003946F0BC04F062B84C4306FB0044234403
:102960009C7ADA7AA24204D101329A72F0BC04F065
:1029700083B8F0BC704700BFD800002070B5064691
:102980000D461C46A2B1012362782078801A10F00F
:1029900003002CD01BB3012828D00132D2B2227000
:1029A0001C4B0122294630465A5504F065F81CE0BC
:1029B00004F050F80028E6D02946304604F03CF8F0
:1029C0000028E0D030230C226B4302FB0633124A6E
:1029D0001A44937AD27A9B1A18BF0123D4E70232A1
:1029E000D2B22270E368A0689847002070BD002B27
:1029F000F8D00132D2B222700423302212FB053209
:102A00000C2313FB0623044A60681A442146FFF78F
:102A100044FFC5E7D4000020D80000202DE9F04F86
:102A2000524B1A5C8BB00646002A00F09B800122B4
:102A30001A5400EB40031B014D4D069304243C2324
:102A400013FB0043EB184FF0000A4FF030080593DA
:102A5000CDF804A008FB00F8AB46013CE4B2FF2C23
:102A60000BD1019B002B7DD0BAF1000F7AD15246D9
:102A70003146304603F0D2FF74E00AAA00230C2747
:102A800042F8043D07FB04F303EB0800291828581B
:102A900049680293FFF708FF069B17FB0437EB1901
:102AA0000493029B03938146B9F1000F15D10C23C7
:102AB00003FB04825A4403FB0483917AD07A5B447B
:102AC00088421EBFD17201220192597A1A7A91422C
:102AD0001CBF5A724FF0010ABFE7099B19785A7858
:102AE000891A01F003010129029104D1013A5A70B7
:102AF0009868DA689047099F3B787A78DBB29A1A2F
:102B000002F00302012A079319D0039B049903EBF7
:102B10000800584400224068FFF7CEFE079B7A78F1
:102B20007B703B78C7F804909B1A03F00303012BDA
:102B300005D17A703946059A4846FFF7AEFE039BE9
:102B40004344E918E858496809AAFFF7ADFE029B1B
:102B5000012B8146A8D10CB90028A8D031463046B7
:102B600003F08AFF0BB0BDE8F08F00BFD400002057
:102B7000D800002010B5421E00200139C9B2FF293B
:102B800000D110BD12F8013F002BF6D05C1E0130C1
:102B90002340C0B2F8E7F0B5437F05681A46002429
:102BA000FF2A01D10020F0BD02EB82078A4205EB2B
:102BB000C70615F8377004D0B3681C4413463A466C
:102BC000EEE7934200D147771BB203EB83033278E1
:102BD000B06805F833203378FF2B06D003EB83036E
:102BE00005EBC3039A6802449A602044F0BD30B5F7
:102BF000551A15F4000F8368446909D125F07F4206
:102C00001A44A2420ED9121B00248260446130BDD6
:102C10008A1A22F07F42934201D99A1AF1E722449C
:102C2000D41A0022A41A0022EFE7034600221A70E9
:102C30009A6A596208460AB1D96A104770472DE965
:102C4000F047857F01230446C377002D4CD1437F95
:102C5000FF2B02D1C577BDE8F08703F01FFB676942
:102C6000667FD4F80080C71B27F07F47FF2E06D071
:102C700006EB860608EBC6018B689F4218D2A27A43
:102C8000E37A934205D10133DBB2022B08BF002364
:102C9000E372E37A04EB83030122DD600023656ABB
:102CA000E377AC46234604210320BDE8F0476047A4
:102CB000FF1A1D448A784B7818F836609B1ADBB2ED
:102CC000012BD3D1D1F80C90013A8A70B9F1000FE1
:102CD000CCD048696369CA8B281A184420F07F4019
:102CE0000B69496AC847C1E7BDE8F0872DE9F04F95
:102CF000C27F93B08346002A40F0B98343690593AD
:102D00000121837A8177C07A984200F08F800B444A
:102D1000DBB2022B08BF00238BF80A300BEB8303D6
:102D20000191D3F80C80059B434423F07F43CBF8FB
:102D300014309BF81D300393DBF800300493DBF86C
:102D400004300B939BF80930013BDBB20293002364
:102D500007934FF0FF0A029BFF2B6AD19BF81D30AF
:102D6000039A9B1A18BF01230293019BE3B1DBF87E
:102D7000003004934FF000099BF81D60FF2E0CD02B
:102D800037B2049B07EB870703EBC704A5684545EB
:102D900040F23A81A5EB0805A560029B019A0399D0
:102DA000B14218BF13460293DBF800300893DBF8FA
:102DB000043010939BF80930013BDBB20193019B77
:102DC000FF2B40F074819BF81D30039A9342079BC0
:102DD00040F044835BB99BF80940DBF80430019371
:102DE000013CE4B24FF00008FF2C40F0A482002325
:102DF0008BF81E30029B4BB19BF81D30FF2B40F02F
:102E0000ED8203F033FA08B9CBF818009BF81F30B5
:102E1000002B00F02C83DBF824405B4601220321C9
:102E20000420A44613B0BDE8F04F604701929046DD
:102E30007FE70B9B029A03EBC2077B680693F97846
:102E4000BE788E4200F0DB80069B387806EB4602A7
:102E500012019D18731CDBB2984208BF0023BB709F
:102E6000069B9A5C032AEBD9052A1BD8697801EBEB
:102E700081030A930A98049B03EBC0046378A0784B
:102E80001B1A13F0FF030DD0042A10D16A6872B91F
:102E9000AA6862B9EA6852B92A6942B96A6932F025
:102EA0007F4204D101212846FFF7BFFEC7E7012B6F
:102EB00040F09B805846FFF76EFE2B78A060042BF5
:102EC000064640F08480DBF81430089303F0E6F9FE
:102ED000089B0990C31A23F07F4343449E42024655
:102EE0009EBF6269921B9B18626896BF6361F31A6A
:102EF00000238AB1A98A79B101F1FF3E1FFA8EFE43
:102F0000A5F814E09A422BD3DFF82493B4F81EC03E
:102F1000E64547D8A4F81CE06A6808991344A36002
:102F2000AA68636913446361099A2046FFF75FFE4C
:102F3000EA68A3691344A3612A6993428CBF9B1A70
:102F40000023A361AB7D03B1E370049B0A9A03F8ED
:102F500032A0637895F801A0013363700021A2E7E5
:102F6000B4F81EC0E645CFD2616AAF4EAF488E19A5
:102F7000864281BF01F1E87101F5D43101F5A571F7
:102F80006162666A216A8CBF4FF001094FF0000947
:102F9000761A91440CF1FF3C6662A3EB0903A4F896
:102FA0001EC0AFE7666A216AA0480E449E497118A8
:102FB00081428EBF002101214E4411440CF1010CCD
:102FC0008CBF666266620B44A4F81EC09EE7A378BD
:102FD00063706B789BF81C209A4201BFFF238BF82B
:102FE0001C300023CBF81830B8E704215B46DBF82F
:102FF000244001220846A0470123BE700793029B8C
:10300000013BDBB20293A6E6DBF818309D4229BFF4
:10301000FF235B1B8BF81C300023CBF81830A3690F
:10302000A9441BB18BF81C60CBF818300022049B1C
:10303000A26013F837308BF81D30D4F804E0BEF1ED
:10304000000F30D0A08BDFF8E4C1636A216A0B4423
:103050007549591861459FBFA3F1E873A3F5D433AF
:10306000A3F5A573636292BF019B6362002373445F
:1030700010F1FF301A44E8D2059BA260DBF814106F
:1030800003EB09022046FFF7B2FDA38BE383002385
:10309000E370049B03F837A0637801336370A8EBF7
:1030A0000508B24668E6A37863705646F7E7109BBA
:1030B000019A03EBC20304935B680A93049B93F8A1
:1030C0000190BAF1FF0F00F08E800FFA8AF303EB44
:1030D0008303089AD04612F833A002EBC3040025FC
:1030E000DBF800300B93FF23A28B2370E38B93421A
:1030F00086BF9B1A9BB200230C930FFA88F303EB55
:103100008303DB001193119BDBF80020DBF8180030
:10311000059002EB030EFF209BF81D30DEF808102F
:1031200009930690FF2B07D003EB830C02EBCC0630
:10313000B068814200F2A980DEF818000D9001EB22
:10314000000C1E46FF2E40F0AE800D9830B1059861
:103150008142C0F0BF80FF2E40F085810998CEF8F3
:103160000810834218BFBDF924008EF8003016BF46
:1031700000EB80008BF81D8002F83080FF2B06D01A
:1031800003EB830302EBC3039A68511A9960A37897
:10319000013363700021002D93D02846FFF745FDD1
:1031A0008FE709EB49030A9A1B01D51809F10102BF
:1031B0005FFA82F9049A12784A4508BF4FF0000975
:1031C0000A9AD35C032B0ED195F80180089B08EB7B
:1031D000880403EBC4046278A3789A4209D00121E1
:1031E0002846FFF722FD049B9B784B45D9D1019BD4
:1031F000E2E5EB68DBF8141063602B692362AB8AAD
:10320000A383AB69A361EB69E3602B6A23610026AA
:10321000AB68A36066616A682046FFF7E8FC01239B
:103220006662E683E3705BE75A2B17FF592B177F23
:10323000B6562EFE606800287BD0626A216A8D4BEC
:103240000A448D49D3188B429CBFA2F1E872A2F5C3
:10325000D432A3688BBF6262A2F5A57200226262BB
:10326000034498BF01221344E28BA3600132E2833E
:10327000626993424FF0000189BF9B1AD31AA36081
:1032800061619CBF6361A1603DE7B669091A46B9F7
:10329000059FB84200D23E1A0993059612F83C30B9
:1032A00040E70693F8E730B200EB800002EBC0077E
:1032B0000E97BF680F9767450AD20E9FBF69002F10
:1032C0007FF443AF0F9EACEB060C12F8306039E789
:1032D000FF263AE7069B98453FF459AF069BFF2B24
:1032E000A8D01E4633B203EB83030593059A0B9BCC
:1032F00003EBC207FB8BBA8B934288BF9B1A7A6899
:103300008CBF9BB20023002A94D00C9A934291D890
:10331000FA78E3789A428DD231465846FFF73BFC63
:10332000BB787B70059A0B9BB86003F832A0B2465D
:10333000E9E601212FE7019B03EBC4056E686B787A
:10334000EA789A4202D1013CE4B24DE503EB430333
:103350001B01F218F35C012B25D0022B2AD1D2F8E5
:1033600004C093689CF80000D2F80C90DBF800E0F1
:10337000FF2804D01968DBF81470B94223D0DBF8B9
:1033800014009BF81D1018600023FF2907D001EBE3
:10339000810A0EEBCA0087698068DFB103448CF8AC
:1033A0000010C9F80030936AC2F8248013B1D16AC2
:1033B000002098476B782A780133DBB29A4208BF25
:1033C00000236B70BBE700EB8000D9F800301EF8DB
:1033D0003010DAE703441EF83A10D6E7039BFF2BC0
:1033E00007D102F05BFF044602F032FF08B9CBF8C8
:1033F00014409BF81D30DBF8002003EB830302EB45
:10340000C3030A269D6802F049FFDBF81440031B42
:1034100023F07F430333AB422CBFE418641924F03C
:103420007F440746DBF828302046984702F036FFF5
:10343000C01B20F07F40E41B033024F07F44A042F7
:103440007FF6E4AC013EDED1404080F311884FF0BE
:10345000040002DF00238BF81E30CDE4002BF9D1ED
:1034600001230293B7E4B0457FF43CAF8FE613B07D
:10347000BDE8F08F5A2B17FF592B177F70B5049EAC
:103480009DF8145008B1012070BD144C21720699AA
:103490002260637266602246013BDBB2FF2B0FD1D4
:1034A000002DF0D107991162089951620999916232
:1034B00053771377956155619572D572284670BD23
:1034C00018B206EBC004616016F8300000EB40044F
:1034D0002D1A01EB0411EDB2DEE700BF98010020C8
:1034E000074A2C2100FB012310B45C6A2CB1A446CE
:1034F00001220321022010BC604710BC704700BFAE
:10350000980100202DE9F047254F4FF02C08814607
:1035100008FB00700FFA81FCD0F804E00EEBCC063B
:103520001EF83CE0F478651CEDB2AE4598BF00256E
:1035300096F801E0AE452FD0D6F804C004EB440461
:103540004FEA041E0CEB0E044FF0030A0CF80EA019
:103550006360089BA360099BE3600A9B23610C9B4B
:10356000A361BDF82C30A3820D9BE3610E9B236207
:10357000022363620F9BA362109B6270E362F5708B
:10358000456A036A0846984709FB0873002204212C
:10359000A847606ABDE8F0870120BDE8F08700BF5A
:1035A000980100202DE9F047234F4FF02C0808FB2D
:1035B000007E0FFA81FCDEF80460814606EBCC0049
:1035C00016F83C60C478651CEDB2AE4298BF002589
:1035D0004678AE422DD0D0F804A004EB44044FEA64
:1035E000041C0AEB0C0404260AF80C606360089BB8
:1035F000A360099BE3600A9B2361BDF82C30A38282
:103600009DF83030A375022363620D9BA3620E9B6D
:103610006270E362C570DEF82030DEF824500846A0
:10362000984709FB087300223146A847606ABDE845
:10363000F0870120BDE8F087980100202DE9F047D0
:10364000DFF86C904FF02C0A0AFB009E8046DEF8F3
:1036500004000EB200EBC60710F83600FC78651CBB
:10366000EDB2A84298BF00257878A8421DD07868AE
:1036700004EB4404240106194FF0050C00F804C0C3
:103680007270B3620222089B7262F362FD70DEF810
:103690002030DEF824400846984708FB0A930022B1
:1036A0000421A047706ABDE8F0870120BDE8F087DB
:1036B000980100202DE9F047DFF878804FF02C0AC0
:1036C00081460AFB00800FFA81FE456805EBCE07B4
:1036D00015F83E50FC78661CF6B2B54298BF00263D
:1036E0007D78B54223D0D7F804C004EB440425010B
:1036F0000CEB05044FF0020E0CF805E0A360089BEC
:10370000E360099BA362FF250A9B62606570C4F8B1
:1037100024E0E362FE70456A036A0846984709FBA5
:103720000A8300220421A847606ABDE8F0870120CF
:10373000BDE8F087980100202DE9F047DFF86C9094
:103740004FF02C0A0AFB009E8046DEF804000EB201
:1037500000EBC60710F83600FC78651CEDB2A842F5
:1037600098BF00257878A8421DD0786804EB4404FF
:10377000240106194FF0010C00F804C0FF207070FE
:1037800002207062B262F362FD70DEF82030DEF873
:1037900024400846984708FB0A9300220421A047CA
:1037A000706ABDE8F0870120BDE8F087980100202D
:1037B0002DE9F041084C2C2505FB004306465F6AC5
:1037C0001B6A0846984706FB0543BC4600220421B5
:1037D000BDE8F041604700BF9801002002F05EBDE7
:1037E000401A20F07F40704708B50346012B084679
:1037F0000ED833B119B106220649FEF77BFB054806
:1038000008BD19B106220449FEF774FB024808BD41
:10381000002008BDCA010020C401002070B5064682
:1038200000200D4601F0F6FE044648B9062229465E
:1038300026B10448FEF75EFB204670BD0248F9E75A
:103840000C24F9E7CA010020C401002000201070F8
:103850007047002303700B707047000008B50248E2
:10386000FEF746FD002008BD1C92000013B58389B9
:103870000446A3B1037D93B902A941F8043D00F0C9
:103880001DF930B1FEF7EEFC019911B1054804F0C5
:103890008FFA204603F002FA002002B010BD6FF04C
:1038A0001500FAE7B82A002073B51C4D00264FF02A
:1038B000FF31284604F0A0FA044618B300F09CFC3F
:1038C0000228019421D801280EBF00214FF0FF31BA
:1038D0000120FEF745FF044618B10146019800F0AB
:1038E000CFFB019B0021D88801F038FF02A850F8D7
:1038F000043D1E6001F016FF24B1A389204653B198
:10390000FEF788FC04F0C0FCD1E7404080F311884A
:103910004FF0040002DF03F0C1F9F3E7B82A0020FA
:1039200037B50C4C0C4D0DF1020101A801F094FECD
:103930000028F8D1019B33B101F0C6FE0199284659
:1039400004F036FAEFE74FF0FF31204604F0FCFCBC
:10395000E9E700BF8C2A0020B82A002010B51448DF
:1039600086B002F0E9F80446F8B900F057FC6FF0B1
:10397000090303934FF4E0720E4B0F49059404942E
:103980000294019400940D4804F088FD6FF0070341
:10399000039305940494029401940094084B0949FC
:1039A00009484FF4806204F079FD204606B010BD4E
:1039B0008C2A00202139000010110020D0010020A5
:1039C000A9380000D01200203C020020C0F30723D9
:1039D0000870000C8870000A4B70C870704703466E
:1039E00000685968704770B500F108040E4620461B
:1039F0000221154603F084F93E2303706B1C4370CB
:103A00000121204603F07CF9067029462046BDE8D6
:103A1000704003F075B9000070B504461846134BAA
:103A20001646D3E90023002203F0005313430D464A
:103A30001BD00F4BD3E90023002302F008021343ED
:103A400013D00B220421FFF7CEFF08220470A0F848
:103A50000160033024B9291DBDE87040FEF74ABA61
:103A60000021BDE87040FEF771BA70BDD02800207B
:103A7000D828002038B504464FF0FF300D46FEF739
:103A80007FFE02212060083003F03AF90E23037014
:103A9000EB1C437020680321083003F031F9012347
:103AA0000370054B1B88A0F80130206829460830B8
:103AB000BDE8384003F024B9A8020020F0B58189A0
:103AC00093B00025022904460C9502D8002013B0BB
:103AD000F0BD8368C94E1A7858789B7842EA002274
:103AE0008B423280F2D8032104F1080003F017F969
:103AF0003388C3F309029B0A042B5FD007D8032B3A
:103B000024D001210CA8FFF7B5FF0123F1E0082B19
:103B100000F0D5803F2BF4D1013A092AF1D801A356
:103B200053F822F09B3E0000C93E0000F13E000029
:103B3000033B0000033B00003D3F0000033B00004F
:103B4000073F0000473F0000B33F0000032A14D0A6
:103B500008D8012AD5D1A068FFF741FFA84BC3E9D7
:103B6000000103E02D2A17D0632ACAD101210CA835
:103B7000FFF780FF05700C98A9E7A14B4FF0FF30CD
:103B800041F6FF71C3E900019E4B1F200021C3E9EC
:103B9000000101F0E7FCE9E7A36804210CA81D88F7
:103BA0009F78FFF767FFAEB20446C21C3946304625
:103BB000FFF74CFEA4F801502070DCE7013A082A18
:103BC0009FD801A353F822F0ED3B0000173C000002
:103BD0008B3C0000033B0000033B0000033B000064
:103BE000033B0000033B0000A73C000009210CA898
:103BF000FFF740FF002303708370C3706FF00E0364
:103C000043710523092283714FF0FF334270027123
:103C1000C3710372AFE741210CA8FFF72BFF00210E
:103C20000446402200F8011BFEF790F9E378217F5B
:103C3000A27E63F07F03E370A37963F03F03A37177
:103C4000E37A43F00403E372E37B43F02803E37376
:103C5000237C43F002032374E37D43F00403E37504
:103C6000E37E61F03C0163F03C032177E376617F02
:103C700094F8273041F0080162F0080263F07F03F6
:103C80006177A27684F8273075E709210CA8FFF741
:103C9000F1FE00210446082200F8011BFEF756F948
:103CA0006023637167E707210CA8FFF7E3FE014675
:103CB000002301F8013B1846FFF796FD5BE70A2A4F
:103CC00000F0E58029D8052A00F0838013D8022A65
:103CD00061D0032A6BD0012A7FF413AFA068FFF7ED
:103CE0007EFE484BC3E9000101210CA8FFF7C2FE8C
:103CF000002303703FE7072A00F05381C0F0A8803B
:103D0000082A00F0BD80092A7FF4FBAEA3680020DA
:103D10005A1C197802F035F95FE0122A78D010D8D1
:103D2000102A61D070D80F2A7FF4EBAE02210CA8C4
:103D3000FFF7A0FE00230370044602F0D7F960707D
:103D400019E7182A68D015D8172A7FF4DAAEA068C8
:103D500000230DAA00F1100102F0D8FA11210CA8DD
:103D6000FFF788FE002300F8013B10220DA9FEF7A3
:103D7000C1F800E71C2A5AD04B2A7FF4C2AE0321B7
:103D80000CA8FFF777FE0146002301F8023B013043
:103D9000FFF75FFDEFE604210CA8FFF76BFE0023A1
:103DA00003701B22837003234270C370E3E6092172
:103DB0000CA8FFF75FFE00250446082200F8015B0F
:103DC0002946FEF7C3F84023A37001236570E37012
:103DD000D1E6A1680120FFF721FD044601210CA8CE
:103DE000FFF748FE0470C6E601210CA8FFF742FE6B
:103DF000044602F07DF92070BDE600BFA802002055
:103E0000D0280020D8280020A06802F087F9E4E735
:103E1000A06802F0BBF9E0E709210CA8FFF72AFE31
:103E2000002300F8013B082100F00AFAA3E609216B
:103E30000CA8FFF71FFE01460022044601F8012BE3
:103E40000320FFF7C3FD611D1046FFF7BFFD92E69B
:103E5000A0680021037902880A91099108910791CD
:103E600006910591847B0494447B0394C41D0294C1
:103E70008479019440790090084601F0E5FEACE7B2
:103E8000A36800205A1C197802F022F8A5E7A3685D
:103E90002846197802F0BCF89FE70D210CA8FFF71F
:103EA000E9FD02224270C270012282710D220023BC
:103EB000C271632203708370037143710372427293
:103EC0008372C372037356E641210CA8FFF7D2FD3B
:103ED00000210446402200F8011BFEF737F8637802
:103EE00063F058036370A37843F00303A37042E6C2
:103EF00009210CA8FFF7BEFD002100F8011B0822D4
:103F0000FEF724F837E65D4B0DAA03F110061546BF
:103F100018685968144603C40833B3422246F7D1DF
:103F200019889B782180A37014210CA8FFF7A2FDAB
:103F3000002300F8013B1322294618E7A16800205E
:103F4000FFF76CFCD0E64FF08053D3F8A420013289
:103F500006D1D3F8A8304FF6FF729BB2934220D01F
:103F60004FF08055D5F8A030DB071AD518210CA8E2
:103F7000FFF780FD00260123044643700670D5F844
:103F8000A400A11CFFF722FDD5F8A830A371C3F34C
:103F9000072363F03F03E3711022314604F1080068
:103FA000AEE702210CA8FFF765FD00230370437004
:103FB000E1E521210CA8FFF75DFD0346002203F88F
:103FC000012B4FF080520446D2F8901001314BD0B3
:103FD000D2F89410013147D0D2F89810013143D073
:103FE000D2F89C1001313FD0D2F890001946FFF76B
:103FF000EDFC611DD2F89400FFF7E8FC04F1090123
:10400000D2F89800FFF7E2FC04F10D01D2F89C0011
:10401000FFF7DCFC4FF08052D2F88030013304F11E
:10402000110327D0D2F88410013123D0D2F88810A0
:1040300001311FD0D2F88C1001311BD0D2F8800092
:104040001946FFF7C3FC04F11501D2F88400FFF70D
:10405000BDFC04F11901D2F88800FFF7B7FC04F1A8
:104060001D01D2F88C00F0E6102200211846FDF761
:104070006DFFCFE710220021184641E73B92000078
:104080002DE9F0430B460179022993B0044665D02F
:10409000072940F09B80504AD2E90001002001F03E
:1040A000005150EA010204F10A0508D04B4AD2E956
:1040B0000001002100F4802050EA01023DD1237A62
:1040C0000622C3F3801329460DF119008DF818302C
:1040D000FDF710FF9DF8183008AC032B27D8DFE858
:1040E00003F0022022243E492046FDF7D7FE9DF82A
:1040F000192004929DF81A2003929DF81B20029229
:104100009DF81C2001929DF81D2000929DF81E3004
:104110000594344A1B210BA8FCF748FF13B0BDE8F7
:10412000F0833149E0E73149DEE73149DCE7314AE4
:104130000A212046FCF73AFFD9E708221321184646
:10414000FFF751FC00230370237AC3F380134370FD
:10415000062229460230FDF7CDFEDFE7C57AC68884
:10416000092D0AD00C2D0FD0072D2FD1027B0E2A3E
:10417000D4D1324600211A2003E000F10801324672
:104180000020FFF749FCC9E7134AD2E900894FF044
:10419000000908F4006858EA0902BFD003F10807D3
:1041A000384602F0ADFD082105704170384602F036
:1041B000A7FD00230370A0F80160237BC370B4F84F
:1041C0000D308380B4F80F30C380A7E7404080F300
:1041D00011884FF0040002DFD0280020D8280020EA
:1041E0004E92000077920000559200005C92000011
:1041F00066920000709200000379022B05D0072B15
:104200000CBF01204FF0FF307047037A03F0030327
:10421000032B0CBF0220032070470000064B4FF019
:10422000FF3041F6FF71C3E90001044B1F2000215C
:10423000C3E90001704700BFD0280020D828002023
:10424000F7B507460E460C46351B3D448CB1FDF7CD
:1042500049F8032C019007D904220DEB02012846EE
:10426000FDF748FE043CEFE7224601A92846FDF78A
:1042700041FE002003B0F0BD20BF40BF20BF70470B
:1042800008607047024B1868436800211B68184794
:10429000AC02002018B90B6843F000430B60704774
:1042A00018B90B6823F000430B6070472DE9F84FF5
:1042B0000C78944281460F4690463DD01F4ED6F86A
:1042C000683133F83430038000254FF0020B06F5D7
:1042D000AE7A22B2D6F86801B9F800E000EBC2016C
:1042E00030F83220964520D14868012820F0030399
:1042F0000AD9F3B1021D1CD04279D2B1027902F081
:104300000302013A012A14D8012215444A60EDB291
:1043100013B15146FEF797FA013496F86C21E4B2D6
:10432000A24208BF00244445D3D13C702846BDE8D2
:10433000F88FC1F804B0EBE70025F7E7AC020020E6
:1043400010B5094B93F81021824204460AD902465F
:104350004FF48271D3F80801FEF78AFA10B1038C8A
:10436000A34200D0002010BDAC0200202DE9F04196
:1043700086B00224052805460F4602940ED0062872
:1043800000F0928040F28A80073880B2FFF7D8FFB1
:10439000002800F0DD8090E8400110E06D4B9E6940
:1043A000D3F81C8002AB00930A466B4B032100201C
:1043B000FFF744F902286AD0029B002B6BD1654CB1
:1043C000A37C03F0FF00002B68D106AB0222A5748A
:1043D00043F8102D032100932A465F4BFFF72EF977
:1043E000022867D0029B002B45D1237C9D4202D03E
:1043F000637C9D423BD106AB022243F80C2D002288
:1044000000930321544B1046FFF718F9022807D1F7
:10441000012211460320FEF789FA039B022B3DD0AF
:104420000398002862D102230493237C002B35D00B
:1044300004AB2074012200930321474BFFF7FEF8E1
:10444000022807D1012211460320FEF76FFA049BD0
:10445000022B23D0049A002A3AD126F00046B04518
:1044600042D93E4B11460320FEF788FAB0B9A37C2F
:104470000BB9012302930023A374029B002B14BFEA
:104480000C20002006B0BDE8F081FFF7F5FE029B8E
:10449000022BFAD090E7029B012B90D0404080F392
:1044A00011884FF0040002DF2A4BD3F8D060D3F814
:1044B000D48084E7637C9D4204D10122114603200D
:1044C000FEF734FA029B022B8CD1FFF7D5FEF9E7F9
:1044D000049B012BE2D100221146204B0320FEF762
:1044E0004DFA02460028D9D11D4BBBE7039D012D93
:1044F000D4D1FF2F19D006AB022243F8042D03219B
:1045000000933A46144B0020FFF798F8022807D191
:104510002A4629460320FEF709FA059B022BBDD047
:10452000059B13B1059B012BB8D1237D002B9ED099
:104530000C4B04229A60002211460320FEF71EFA5B
:104540000028ABD1237D002B91D0FFF795FEF9E732
:10455000204697E7AC02002081420000002900209D
:1045600070290020202900202DE9F843334C06460D
:1045700000252EB194F86D3194F86E219A4201D144
:10458000BDE8F88394F86D81D4F86491D4F80801FB
:1045900039F8382009EBC8034FF482715F683D6039
:1045A000FEF766F939F83810038C8B421FD1D0F82A
:1045B000F83043B9D0F8EC30C0F8F8701BB9C0F847
:1045C000EC70C0F8FC30D0F8FC3003B11F60C0F8CC
:1045D000FC7094F86D3194F86C210133DBB29A428F
:1045E00008BF0023013E84F86D31F6B2C1E73B7984
:1045F00065F301033B7194F8703194F86C21013339
:10460000DBB29A4208BF002394F86F219A4205D189
:10461000404080F311884FF0040002DF94F87001ED
:10462000D4F8682122F8301094F8701102EBC1021E
:10463000576084F8703101F079FACAE7AC020020C3
:10464000044B5B7D23B1012100220846FEF76EB9C1
:10465000704700BFAC020020062810B50C460AD9EE
:10466000094BC21F92B24FF48271D3F80801FEF7D2
:10467000FFF8206010BD052804D00628034818BFA5
:10468000002010BD024810BDAC0200207C030020B9
:10469000C402002008B50A4B00221A7068B1012834
:1046A00005D1084B00221146FEF768F938B14040A9
:1046B00080F311884FF0040002DF034BF2E708BDDE
:1046C000900400206029002050290020404080F301
:1046D00011884FF0040002DF404080F311884FF052
:1046E000040002DF262810B504460BD027280BD083
:1046F00025280BD1022001F027FF2046BDE81040FD
:1047000001F028BF1A20F6E75020F4E70A2802D863
:1047100002304000EFE7272801D80330F9E7FFF720
:10472000DBFF000038B52A4C94F8783094F87920F3
:104730009A4206D00133DBB2022B08BF002384F873
:10474000783094F8C83094F8C9209A4206D00133E2
:10475000DBB2022B08BF002384F8C83094F878201D
:104760002A23272515FB0235601901F051FF635DEF
:1047700003F00F03022B23D0072B21D00223962016
:10478000637502F047F8002001F0B2FF94F828307A
:10479000C3F30202D3B21946002011F0010F00F159
:1047A000010512D0013B134094F82820C0B263F3F6
:1047B000020284F828202530BDE83840FFF792BF78
:1047C0000323637501F0AAFFE0E749082846E4E700
:1047D000AC02002030B50468002C89B019DA4368B7
:1047E000856806909D4224F0004438BFE41A0A4BC5
:1047F000059328BF641B0023049303930293184678
:1048000001940094FEF7CEFE30F0020301D0FFF7D2
:1048100063FF09B030BD00BFA1420000C0B208B5BF
:10482000031F012B01D9FFF757FF084A537D3BB106
:10483000043B012B04D95075BDE8084001F002BFCC
:1048400001F032FF0028F7D008BD00BFAC02002005
:1048500008B50A4A137838B1591C117063B90120A0
:10486000BDE8084001F060B90BB9FFF735FF013B27
:10487000DBB21370002BF3D008BD00BF4C04002046
:104880000020FFF7E5BF0000064A08B59360134615
:10489000002211461046FEF771F808B1FFF71CFF21
:1048A00008BD00BF10290020002208B51146044BA6
:1048B0001046FEF763F808B1FFF70EFF08BD00BF12
:1048C00030290020002208B51146044B1046FEF79F
:1048D00055F808B1FFF700FF08BD00BFE028002031
:1048E00008B508B1FFF7F8FE08BD000008B528B10B
:1048F000034B9B7C052B01D0FFF7EEFE08BD00BFEC
:10490000AC02002037B502AD104B45F8043D04461B
:1049100001F0EAFD002001F011FE00210C4801F039
:10492000A1FD0121204601F0F9FD284601F024FEF9
:10493000620002F0FE022521082001F035FE054943
:1049400040F25B6001F0BAFE03B030BDD6BE898E86
:10495000394D0000555555002DE9F04F14681D687C
:104960008DB0002C81460B9190469B469DF85CA033
:1049700003DA169CAC4238BF2C46A5424E4F1BD2E0
:1049800041F2136308934D4B05930021631B009381
:1049900007974B46069104910391029101910122E0
:1049A0000846FEF7AFFD30F002032BD0404080F305
:1049B00011884FF0040002DF1DD900231A46194662
:1049C0001846FFF77FFF41F22863002108932C1B54
:1049D0003B4B059307974B46069104910391029137
:1049E0000191009401220846FEF78CFD30F002038D
:1049F000DCD12C460BE000231A4619461846FFF777
:104A000061FF00231A4619461846FFF74DFF2D4E49
:104A10000B9BF3604FF4B25300220893189B06924D
:104A20000593049203920292019211461046079751
:104A300000944B46FEF766FD30F00202B6D1052326
:104A400011461046FFF720FFD6F87C319D4222D058
:104A5000CBF80030D8F800300597002BBCBF23F00E
:104A60000043C8F80030D8F80030D6F87C21029412
:104A7000934238BF1346002141F26E6206920193C1
:104A8000009304912346039152460846FEF78AFD9F
:104A900030F002038AD1FF20FFF766FD0A4B0122A6
:104AA00011460020C3F808A0FDF768FF00287FF436
:104AB0007DAF0DB0BDE8F08FE1480000C5480000B3
:104AC000A9480000AC020020802900201FB5094A37
:104AD000137C0BB1FFF700FE0523074C13740294FF
:104AE0000193136A009302F11C031832FFF734FF9D
:104AF00004B010BDAC020020555200002DE9F8436F
:104B0000214D95F83A4195F8383195F84C9101349A
:104B1000E4B2A34208BF002405F5A07705F5947818
:104B2000B9F1000F03D095F839319C4201D1BDE8AD
:104B3000F8833846FDF76DFE06460028F7D040465C
:104B4000FDF767FE28B930461049BDE8F843FDF788
:104B50007ABE066095F83A21D5F8343143F8220040
:104B600085F83A4195F838310134E4B2A34208BFE0
:104B7000002495F84C3109F1FF39013B85F84C319F
:104B80005FFA89F9CCE700BFAC020020EC030020FB
:104B900010B52E4C94F81021002A37D004F58673F6
:104BA0004FF48271D4F80801FDF70CFE284B94F8FD
:104BB0003221B4F83011D4F82401FDF703FE94F843
:104BC000381194F81021234BD4F83C010A440821F1
:104BD000FDF7F8FD204BD4F8500102222421FDF707
:104BE000F1FD94F86C21D4F858011C4BB4F8601115
:104BF000013A92B2FDF7E6FD1648FDF70AFE40B90C
:104C0000404080F311884FF0040002DFC4F80C210B
:104C1000CCE7134A111FFDF73DFE94F8293043F00D
:104C2000380384F82930FF2384F81A3184F81B31C3
:104C300084F81C3184F81D311F2384F81E3125238C
:104C400084F81F31BDE81040FFF758BFAC020020C8
:104C5000D4030020EC0300200004002008040020FE
:104C6000F403002070B5324C94F83A3194F83921AD
:104C7000934238BF94F8381194F8392138BF5B1843
:104C80009B1ADBB2022B50D994F83921D4F8343175
:104C900053F82230002B48D04FF6FF72DA8094F898
:104CA000E120510709D002F00702012A03D0042AAB
:104CB00019D0FFF70BFD05221A715D7A03F1080682
:104CC000023590B101F042FD00F07F00705594F87C
:104CD000393194F83A219A4209D1404080F3118841
:104CE0004FF0040002DF0622E6E77F20EEE794F8AB
:104CF0003921D4F8343153F8221094F8703108680F
:104D00000B7094F8393194F838210133DBB29A42B0
:104D100008BF0023074A84F83931FDF7BEFD00289B
:104D2000DBD000F003FF002070BD012070BD00BF8C
:104D3000AC020020F40300202DE9F0418AB001F01C
:104D4000A9FCC5B235B301F0C5FC5FFA80F801F0EB
:104D500041FDC7B201F048FD01F04CFE01F038FE04
:104D600001F002FDC6B2CA4C01F07EFC01F042FD2A
:104D700001F028FD01F032FE01F0EEFC637D052B11
:104D800000F23882DFE813F05E00A1000A00A801FB
:104D9000A801A8012E462F46A846E4E70123637523
:104DA00001F0DCFD0546962001F034FD237D013B3A
:104DB000C335032B11D8DFE803F002244848002351
:104DC0001A461946184601F09FFC01F08DFC01F0CF
:104DD00019FC01F055FC044628B1404080F31188CD
:104DE0004FF0040002DF014601F01AFC21460544A1
:104DF000204601F013FC281A01F09CFD01F0A6FDED
:104E000020E0002319461A46184601F07DFC94F86C
:104E10003921D4F8343153F82200083001F0F2FB84
:104E200001F02EFC04460028D7D1014601F0F8FB22
:104E300021460544204601F0F1FB281A01F07AFDD5
:104E400001F07AFC0AB0BDE8F08100231A46194649
:104E5000184601F059FCD4F8146194F83921D4F8BB
:104E600034310021084653F8224001F057FB96F8F0
:104E7000A830D80604F108044FF001021FD51F2105
:104E8000082001F091FB2246002106F1A90001F063
:104E90006BFD01F0B7FB01F0F3FB044600289CD149
:104EA000014601F0BDFB21460544204601F0B6FB5A
:104EB000281A01F03FFD0120FFF756FBC2E708204A
:104EC0001B2101F071FB2046E3E725B9032363753D
:104ED00001F0B8FBB6E7237DDBB2012B5ED0022BDD
:104EE0007FF47BAFB8F1000F00F0978094F8E130C9
:104EF000DB0602D5002F00F0908094F83921D4F819
:104F0000343153F822502B7A13F00F0202D0062AC4
:104F100040F08E8094F8E1100F077AD5D4F8001194
:104F2000002976D13046FFF79DFE0746002874D150
:104F300001F0DAFB03785749032262F3030303709D
:104F40002A7ADBB2C2F3801262F3C7130C224270DA
:104F500094F8E120D20962F386130646062200F88F
:104F6000023BFCF7C7FF062205F10A0106F1080023
:104F7000FCF7C0FF94F8E03043F0020384F8E0301F
:104F800096200223637501F045FC384601F0B0FB22
:104F9000304601F03DFB01F0D9FC34E0B8F1000FE0
:104FA00094D001F0A1FB027802F00F03032B8DD106
:104FB00043780C2B8AD194F82930590601D5002F5B
:104FC00084D094F8783027252A2115FB0313E6189E
:104FD000E35CC3F38013B3EBD21F7FF477AF00F130
:104FE00008010622B01CFCF770FF00287FF46EAFAA
:104FF0000323637501F092FB94F8C80005FB0040A1
:105000007A3001F005FB01F03BFB00283FF41AAFBA
:10501000E3E66AB96B7A002B56D10323637501F07E
:1050200011FB94F8E0306FF3410384F8E03009E7B6
:10503000012A0DD02B7A03F00B02022AEAD003F0EA
:105040000F03072B28D194F8E1305907E2D1E4E7A8
:1050500094F8E120DB09B3EBD21F0FD094F8E130D4
:10506000C3F301139807E5D595F90830002BE1DA71
:105070006B7D03F0C003402BCCD0DBE7062205F1AB
:1050800010010448FCF721FF0028E7D1C2E700BF68
:10509000AC0200208E030020042BBED194F8E03037
:1050A0009A07BAD501F020FB2B7A0278C3F380135C
:1050B000B3EBD21FB1D1062205F10A010830FCF78B
:1050C00004FF0028A6D0A8E7D4F80031002BA4D113
:1050D0003046FFF7C7FDA0E7227DD2B2012A1FD0DC
:1050E000C0F08180022A7FF478AE032B6ED1962027
:1050F00001F090FB002319461A46184601F004FB04
:10510000D4F8343194F8392153F82200083001F0F2
:1051100079FA01F011FB0123637501F087FA6DE65E
:10512000032B08D194F828305B0704D0FFF7FAFA74
:1051300001F082FA62E601F03BFB637D032B2AD18A
:10514000606843685D6825B1002302220DF12601E5
:10515000A847BDF8261040F24712B1FBF2F302FB5C
:10516000131340F6A972002106920133224A0592D8
:105170009BB204910391029101910091052208468E
:10518000ADF82630FEF70EFA30F0020303D0A37C10
:10519000052B7FF422AE002525756575657401F039
:1051A000BDFB2A4629462846144BFDF7E7FB05467A
:1051B00000287FF412AE2068436829465B68984750
:1051C000012211462846FDF7B1FB3BE601F0F0FA5B
:1051D000637D052BDFD10023009304221946184676
:1051E000FEF72CFAD7E7043B012B3FF6F6AD002380
:1051F000637527E6FFF76AFAED480000F028002003
:10520000024B1868436800215B681847AC02002015
:1052100070B514460E460546FEF7E0FA2146FEF745
:10522000DFFAC41C092C11D9094B1B7813B10020DB
:10523000FFF730FA324600212846FFF7CBFAAB6879
:105240001C44262C00D8AC60012070BD002070BD2D
:1052500090040020294B1A7D70B502F0FF0105462D
:105260001C462AB1404080F311884FF0040002DF51
:105270001B7CDBB2052BF5D1A06094F82900012638
:1052800000F00700267521746374FFF73BFB94F868
:10529000293094F82820C3F3C20363F3020284F890
:1052A0002820FFF73FFA94F8293013F0C00F07D0F9
:1052B000304600F00FFF821C4178007801F05EFA62
:1052C000E26805F10901012001F0B0FA01F03EFBAE
:1052D0002A4605210A48FFF79BFF034628B104230D
:1052E0006375BDE8704001F0ADB9064A0146FEF7AE
:1052F00023FA30F00203B5D170BD00BFAC0200202C
:10530000C4020020414600002DE9F0418EB0022386
:105310000993FF2200234F4E4F4D0A9304460B93EF
:105320008DF823200C9309AB02930CAB00930196EC
:105330000DAB0DF1230201210020FEF7BBF902287D
:105340000BD0099B6BB1404080F311884FF00400F3
:1053500002DF01210020FEF72BFA099B022BF8D077
:10536000EFE79DF82330FF2B04D095F8102107328A
:105370009342D8DA5A1FD2B2F92A384F05D8364AA2
:1053800092F810210732934207DB3B7813B10120DA
:10539000FFF780F90EB0BDE8F0810AA9E0B2FFF78F
:1053A0005BF90028CFD003684568002BB8BF83683D
:1053B0009D4238BF1D46C3689DF823000BA903F129
:1053C0003108FFF749F904460028BCD086684368D5
:1053D00002689E4238BF1E46002A09DA0C9B22F062
:1053E0000042921B9A4235BF9A1A00230C920C93EA
:1053F0000C9B45449D420BD23B7813B10120FFF733
:1054000049F99DF8232001212046FFF7E3F9C1E780
:105410003A783AB90120124B38701146FDF7AEFACE
:10542000002890D12368002BB4DB9E42B2D200202A
:105430009B1B0C49059102939DF823200694049030
:105440000390019000900121FEF7ACF830F00203C8
:10545000A0D078E781420000AC0200209004002038
:1054600040290020954200002DE9F8433C4E0C9C59
:105470009DF824C0BDF83450BDF8288030604FF44A
:10548000827000FB03409DF8209086F82011C6F83A
:10549000084161190CF10104E7B208F10304282C5A
:1054A00009F1030E5FFA8EFEA6F82C8188BF08F181
:1054B0000E0886F84CE18CBF28F003080EEB4E0E68
:1054C00072600CF1020C09F10402D2B28CBF18FB1D
:1054D0000EFE4FEA0E1E5FFA8CFCA6F82EE186F84F
:1054E0006CC1C6F834014FEACC0C00EB8200B6F870
:1054F0002E41C6F8640160444FF0300EC6F86801D2
:105500006044A6F830E1C6F82401B4FBFEFE204456
:10551000D418C6F83C0100EBC400BDF82C40C6F816
:1055200050010A3424F003044830A4B2A6F86041C4
:1055300007FB0404641A86F8103186F8382186F8CF
:1055400032E1C6F8580103D02C442046BDE8F88368
:10555000012386F87A31FFF71BFB00F0A3FFF4E785
:10556000AC02002038B503210520FEF7FFFE042120
:105570000620FEF7FBFE224C002594F81021ABB26A
:105580009A4205F1010534D894F828306FF3861358
:1055900084F8283094F8E030002060F3000384F8A9
:1055A000E0303022B4F82E31B3FBF2F384F832311C
:1055B00094F8383184F83901013B84F86D0184F89E
:1055C000700184F84C3194F87831C4F8CC00C4F8F8
:1055D0000001A4F8302184F83A0184F86E0184F8BF
:1055E0006F0184F8793100F019FEBDE83840FFF70B
:1055F000CFBAA81DFF21C0B2FEF7B8FEBDE700BFBD
:10560000AC02002000487047D602002000487047D6
:1056100026030020024B93F82800C0F38010704747
:10562000AC020020044B93F8280010F040001CBF8F
:1056300093F8290080097047AC020020054B93F8CD
:10564000E00010F001001CBF93F8E100C0F301106E
:10565000704700BFAC0200202DE9F3410546084623
:105660001849D1F84431D1F8482193420F461FD050
:10567000D3F8048001F26F1198F80020FEF716FEAF
:105680000446E0B902AE97F86F3106F8033D97F88B
:10569000702131460DF10600FEF708FE34B928B935
:1056A000C5F80080204602B0BDE8F0810446EEE770
:1056B00091F8702101F26F11FEF7F8FD0446002306
:1056C0002B60EFE7AC02002013B5154C02AA0023B3
:1056D00042F8043DD4F8480104F5A271FDF7ECF856
:1056E00028B9404080F311884FF0040002DF04F530
:1056F000A071FDF7A8F8019B1A79072AF1D80123B8
:10570000934013F0E40FECD094F8382194F84C3126
:10571000013A9342E5DA013384F84C3102B010BD0E
:10572000AC02002070B504460B4D006820B9206023
:10573000BDE87040FFF7E2B903790668053B022B2C
:1057400004D82946FDF77FF83046EFE7404080F364
:1057500011884FF0040002DFD403002030B5274B3E
:1057600093F87A2112B90021084630BD93F8785198
:1057700093F87921EDB259B34FF6FF718842F2D018
:10578000954219D1D3F84821D3F84411914211D14F
:10579000002D14BF2A460322013AD2B203EB420184
:1057A00083F8792193F87821A1F872019542DAD033
:1057B00083F879510121D7E72DB9B3F87611091A89
:1057C00018BF0121D0E703EB4503B3F87011F6E7EA
:1057D000D3F84401D3F84841A042C4D19542C2D085
:1057E000D3F8484183F87951A042BCD093F87801AE
:1057F0008542B8D183F87921B6E700BFAC0200201A
:1058000070470000000000002DE9F04F964F8FB068
:105810009A4602230D9397F828308DF82F2013F025
:10582000400F834688463E4603D00C200FB0BDE8AB
:10583000F08F97F879202A234FF0270919FB0239B6
:1058400017F8093003F00F03012B75D8D7F8CC40B7
:10585000002CEAD107F5A070FCF7DBFF0A9058B1E5
:1058600007F58670FCF7D5FF0A9A054630B907F5AB
:10587000A0711046FCF7E7FF0720D7E74FF6FF734C
:1058800003844FF4A033C0F88C30437FC0F89C20D1
:1058900064F3861363F07F0343770623838590F8D0
:1058A0003830C47764F3451364F3000364F34103B1
:1058B00080F8383090F89030448464F3000364F347
:1058C000410380F8903090F8A830048564F3000319
:1058D00064F3410364F3820364F3C30364F30413C6
:1058E00064F3451364F3861364F3C71380F8A83098
:1058F0005E4B44854464846484650486848680F8B1
:105900005C4080F85D4080F8984080F8994080F8CD
:105910009B40C0F8EC40C0F8F040C0F8F440C0F83C
:10592000F840C0F8FC4080F8004180F801411A7846
:10593000002A6DD0C6F8CC500EA896F8293010F881
:10594000092D6BF3020362F3C5036AF3871386F82C
:105950002930D6F87C31F3612723B361012100237C
:105960003362FDF707F917F8093003F00F03012B35
:1059700065D14FF42773584300F59C703C4938A318
:10598000D3E90023A0FB0101FAF7FAFBB369F5693B
:1059900070629D4238BF1D46FDF720FF0DAB089396
:1059A000344B07930024344B06940593736A039495
:1059B0000746324802942B441FFA88F80493A8FB48
:1059C0000001912303FB081125A3D3E90023FAF773
:1059D000D7FB009401903B46052203212046FDF7AA
:1059E00091FD022835D00D9800287FF41EAF96F85F
:1059F000283043F0400386F8283096F8E03013F062
:105A000001047FF413AF0120FFF7FAFE20460DE7F3
:105A100001221B481A7001F0ADFF044638B940401E
:105A200080F311884FF0040002DFFEF725FC636865
:105A300001211B68204698470028F6D17AE7022BFF
:105A40000CBF4FF4297340F2FC53584396E7FEF71E
:105A500013FC0D9B022BFAD0C5E700BFAFF300800B
:105A60008D49FD1A07000000AC0200203004002020
:105A700000CA9A3B81420000CD4A0000002AE78418
:105A8000C88D000070B503210520FEF76FFC0646A7
:105A9000D8B90F4C94F8282060F3861284F8282097
:105AA00094F8E020D30701D4FFF7AAFED4F8CC5035
:105AB0005DB10023C4F8CC300649D5F89C00FCF752
:105AC000C2FE05492846FCF7BEFE304670BD00BF49
:105AD000AC020020EC030020B803002008B5074BFF
